{
  "_format": "hh-sol-artifact-1",
  "contractName": "WavePortal",
  "sourceName": "contracts/WavePortal.sol",
  "abi": [
    {
      "inputs": [],
      "stateMutability": "nonpayable",
      "type": "constructor"
    },
    {
      "anonymous": false,
      "inputs": [
        {
          "indexed": true,
          "internalType": "address",
          "name": "from",
          "type": "address"
        },
        {
          "indexed": false,
          "internalType": "uint256",
          "name": "timestamp",
          "type": "uint256"
        },
        {
          "indexed": false,
          "internalType": "string",
          "name": "message",
          "type": "string"
        }
      ],
      "name": "NewWave",
      "type": "event"
    },
    {
      "inputs": [],
      "name": "getAllWaves",
      "outputs": [
        {
          "components": [
            {
              "internalType": "address",
              "name": "waver",
              "type": "address"
            },
            {
              "internalType": "string",
              "name": "message",
              "type": "string"
            },
            {
              "internalType": "uint256",
              "name": "timestamp",
              "type": "uint256"
            }
          ],
          "internalType": "struct WavePortal.Wave[]",
          "name": "",
          "type": "tuple[]"
        }
      ],
      "stateMutability": "view",
      "type": "function"
    },
    {
      "inputs": [
        {
          "internalType": "address",
          "name": "adr",
          "type": "address"
        }
      ],
      "name": "getStats",
      "outputs": [
        {
          "internalType": "uint256",
          "name": "",
          "type": "uint256"
        }
      ],
      "stateMutability": "view",
      "type": "function"
    },
    {
      "inputs": [],
      "name": "getTotalWaves",
      "outputs": [
        {
          "internalType": "uint256",
          "name": "",
          "type": "uint256"
        }
      ],
      "stateMutability": "view",
      "type": "function"
    },
    {
      "inputs": [
        {
          "internalType": "string",
          "name": "_message",
          "type": "string"
        }
      ],
      "name": "wave",
      "outputs": [],
      "stateMutability": "nonpayable",
      "type": "function"
    }
  ],
  "bytecode": "0x60806040523480156200001157600080fd5b506200005d6040518060400160405280601181526020017f48656c6c6f2057617665506f7274616c210000000000000000000000000000008152506200006360201b620004c51760201c565b620001f7565b62000103816040516024016200007a919062000170565b6040516020818303038152906040527f41304fac000000000000000000000000000000000000000000000000000000007bffffffffffffffffffffffffffffffffffffffffffffffffffffffff19166020820180517bffffffffffffffffffffffffffffffffffffffffffffffffffffffff83818316178352505050506200010660201b60201c565b50565b60008151905060006a636f6e736f6c652e6c6f679050602083016000808483855afa5050505050565b60006200013c8262000194565b6200014881856200019f565b93506200015a818560208601620001b0565b6200016581620001e6565b840191505092915050565b600060208201905081810360008301526200018c81846200012f565b905092915050565b600081519050919050565b600082825260208201905092915050565b60005b83811015620001d0578082015181840152602081019050620001b3565b83811115620001e0576000848401525b50505050565b6000601f19601f8301169050919050565b610d8f80620002076000396000f3fe608060405234801561001057600080fd5b506004361061004c5760003560e01c8063449d46c0146100515780639a2cdc081461006d578063bd43a9081461008b578063c23f85d6146100a9575b600080fd5b61006b6004803603810190610066919061080b565b6100d9565b005b6100756102e0565b6040516100829190610a8c565b60405180910390f35b61009361032b565b6040516100a091906109d3565b60405180910390f35b6100c360048036038101906100be91906107e2565b61047c565b6040516100d09190610a8c565b60405180910390f35b60016000808282546100eb9190610b9e565b925050819055506001600260003373ffffffffffffffffffffffffffffffffffffffff1673ffffffffffffffffffffffffffffffffffffffff1681526020019081526020016000205461013e9190610b9e565b600260003373ffffffffffffffffffffffffffffffffffffffff1673ffffffffffffffffffffffffffffffffffffffff168152602001908152602001600020819055506101c16040518060400160405280602081526020017f25732074636861757a696e686f7520636f6d2061206d656e736167656d202573815250338361055e565b600160405180606001604052803373ffffffffffffffffffffffffffffffffffffffff16815260200183815260200142815250908060018154018082558091505060019003906000526020600020906003020160009091909190915060008201518160000160006101000a81548173ffffffffffffffffffffffffffffffffffffffff021916908373ffffffffffffffffffffffffffffffffffffffff16021790555060208201518160010190805190602001906102809291906106c2565b506040820151816002015550503373ffffffffffffffffffffffffffffffffffffffff167f5f7e16dc676677766a70e9c5628aa6c54ddb8b6e5188e2ae1e1f17f1ffbea71642836040516102d5929190610aa7565b60405180910390a250565b60006103236040518060400160405280601e81526020017f74656d6f73206e6f20746f746f616c2025642074636861757a696e686f7300008152506000546105fd565b600054905090565b60606001805480602002602001604051908101604052809291908181526020016000905b8282101561047357838290600052602060002090600302016040518060600160405290816000820160009054906101000a900473ffffffffffffffffffffffffffffffffffffffff1673ffffffffffffffffffffffffffffffffffffffff1673ffffffffffffffffffffffffffffffffffffffff1681526020016001820180546103d890610c72565b80601f016020809104026020016040519081016040528092919081815260200182805461040490610c72565b80156104515780601f1061042657610100808354040283529160200191610451565b820191906000526020600020905b81548152906001019060200180831161043457829003601f168201915b505050505081526020016002820154815250508152602001906001019061034f565b50505050905090565b6000600260008373ffffffffffffffffffffffffffffffffffffffff1673ffffffffffffffffffffffffffffffffffffffff168152602001908152602001600020549050919050565b61055b816040516024016104d991906109f5565b6040516020818303038152906040527f41304fac000000000000000000000000000000000000000000000000000000007bffffffffffffffffffffffffffffffffffffffffffffffffffffffff19166020820180517bffffffffffffffffffffffffffffffffffffffffffffffffffffffff8381831617835250505050610699565b50565b6105f883838360405160240161057693929190610a17565b6040516020818303038152906040527fe0e9ad4f000000000000000000000000000000000000000000000000000000007bffffffffffffffffffffffffffffffffffffffffffffffffffffffff19166020820180517bffffffffffffffffffffffffffffffffffffffffffffffffffffffff8381831617835250505050610699565b505050565b6106958282604051602401610613929190610a5c565b6040516020818303038152906040527f9710a9d0000000000000000000000000000000000000000000000000000000007bffffffffffffffffffffffffffffffffffffffffffffffffffffffff19166020820180517bffffffffffffffffffffffffffffffffffffffffffffffffffffffff8381831617835250505050610699565b5050565b60008151905060006a636f6e736f6c652e6c6f679050602083016000808483855afa5050505050565b8280546106ce90610c72565b90600052602060002090601f0160209004810192826106f05760008555610737565b82601f1061070957805160ff1916838001178555610737565b82800160010185558215610737579182015b8281111561073657825182559160200191906001019061071b565b5b5090506107449190610748565b5090565b5b80821115610761576000816000905550600101610749565b5090565b600061077861077384610b08565b610ad7565b90508281526020810184848401111561079057600080fd5b61079b848285610c30565b509392505050565b6000813590506107b281610d42565b92915050565b600082601f8301126107c957600080fd5b81356107d9848260208601610765565b91505092915050565b6000602082840312156107f457600080fd5b6000610802848285016107a3565b91505092915050565b60006020828403121561081d57600080fd5b600082013567ffffffffffffffff81111561083757600080fd5b610843848285016107b8565b91505092915050565b60006108588383610965565b905092915050565b61086981610bf4565b82525050565b61087881610bf4565b82525050565b600061088982610b48565b6108938185610b6b565b9350836020820285016108a585610b38565b8060005b858110156108e157848403895281516108c2858261084c565b94506108cd83610b5e565b925060208a019950506001810190506108a9565b50829750879550505050505092915050565b60006108fe82610b53565b6109088185610b7c565b9350610918818560208601610c3f565b61092181610d31565b840191505092915050565b600061093782610b53565b6109418185610b8d565b9350610951818560208601610c3f565b61095a81610d31565b840191505092915050565b600060608301600083015161097d6000860182610860565b506020830151848203602086015261099582826108f3565b91505060408301516109aa60408601826109b5565b508091505092915050565b6109be81610c26565b82525050565b6109cd81610c26565b82525050565b600060208201905081810360008301526109ed818461087e565b905092915050565b60006020820190508181036000830152610a0f818461092c565b905092915050565b60006060820190508181036000830152610a31818661092c565b9050610a40602083018561086f565b8181036040830152610a52818461092c565b9050949350505050565b60006040820190508181036000830152610a76818561092c565b9050610a8560208301846109c4565b9392505050565b6000602082019050610aa160008301846109c4565b92915050565b6000604082019050610abc60008301856109c4565b8181036020830152610ace818461092c565b90509392505050565b6000604051905081810181811067ffffffffffffffff82111715610afe57610afd610d02565b5b8060405250919050565b600067ffffffffffffffff821115610b2357610b22610d02565b5b601f19601f8301169050602081019050919050565b6000819050602082019050919050565b600081519050919050565b600081519050919050565b6000602082019050919050565b600082825260208201905092915050565b600082825260208201905092915050565b600082825260208201905092915050565b6000610ba982610c26565b9150610bb483610c26565b9250827fffffffffffffffffffffffffffffffffffffffffffffffffffffffffffffffff03821115610be957610be8610ca4565b5b828201905092915050565b6000610bff82610c06565b9050919050565b600073ffffffffffffffffffffffffffffffffffffffff82169050919050565b6000819050919050565b82818337600083830152505050565b60005b83811015610c5d578082015181840152602081019050610c42565b83811115610c6c576000848401525b50505050565b60006002820490506001821680610c8a57607f821691505b60208210811415610c9e57610c9d610cd3565b5b50919050565b7f4e487b7100000000000000000000000000000000000000000000000000000000600052601160045260246000fd5b7f4e487b7100000000000000000000000000000000000000000000000000000000600052602260045260246000fd5b7f4e487b7100000000000000000000000000000000000000000000000000000000600052604160045260246000fd5b6000601f19601f8301169050919050565b610d4b81610bf4565b8114610d5657600080fd5b5056fea2646970667358221220f715e04c0b9e2b78faf40ce4b6ba587c3403b1d1eecb0ba808629d143df065bb64736f6c63430008000033",
  "linkReferences": {},
  "deployedLinkReferences": {}
}