{
  "_format": "hh-sol-artifact-1",
  "contractName": "WavePortal",
  "sourceName": "contracts/WavePortal.sol",
  "abi": [
    {
      "inputs": [],
      "stateMutability": "payable",
      "type": "constructor"
    },
    {
      "anonymous": false,
      "inputs": [
        {
          "indexed": true,
          "internalType": "address",
          "name": "from",
          "type": "address"
        },
        {
          "indexed": false,
          "internalType": "uint256",
          "name": "timestamp",
          "type": "uint256"
        },
        {
          "indexed": false,
          "internalType": "string",
          "name": "message",
          "type": "string"
        }
      ],
      "name": "NewWave",
      "type": "event"
    },
    {
      "inputs": [],
      "name": "getAllWaves",
      "outputs": [
        {
          "components": [
            {
              "internalType": "address",
              "name": "waver",
              "type": "address"
            },
            {
              "internalType": "string",
              "name": "message",
              "type": "string"
            },
            {
              "internalType": "uint256",
              "name": "timestamp",
              "type": "uint256"
            }
          ],
          "internalType": "struct WavePortal.Wave[]",
          "name": "",
          "type": "tuple[]"
        }
      ],
      "stateMutability": "view",
      "type": "function"
    },
    {
      "inputs": [
        {
          "internalType": "address",
          "name": "adr",
          "type": "address"
        }
      ],
      "name": "getStats",
      "outputs": [
        {
          "internalType": "uint256",
          "name": "",
          "type": "uint256"
        }
      ],
      "stateMutability": "view",
      "type": "function"
    },
    {
      "inputs": [],
      "name": "getTotalWaves",
      "outputs": [
        {
          "internalType": "uint256",
          "name": "",
          "type": "uint256"
        }
      ],
      "stateMutability": "view",
      "type": "function"
    },
    {
      "inputs": [
        {
          "internalType": "string",
          "name": "_message",
          "type": "string"
        }
      ],
      "name": "wave",
      "outputs": [],
      "stateMutability": "nonpayable",
      "type": "function"
    }
  ],
  "bytecode": "0x60806040526200004f6040518060400160405280601181526020017f48656c6c6f2057617665506f7274616c210000000000000000000000000000008152506200005560201b620005c11760201c565b620001e9565b620000f5816040516024016200006c919062000162565b6040516020818303038152906040527f41304fac000000000000000000000000000000000000000000000000000000007bffffffffffffffffffffffffffffffffffffffffffffffffffffffff19166020820180517bffffffffffffffffffffffffffffffffffffffffffffffffffffffff8381831617835250505050620000f860201b60201c565b50565b60008151905060006a636f6e736f6c652e6c6f679050602083016000808483855afa5050505050565b60006200012e8262000186565b6200013a818562000191565b93506200014c818560208601620001a2565b6200015781620001d8565b840191505092915050565b600060208201905081810360008301526200017e818462000121565b905092915050565b600081519050919050565b600082825260208201905092915050565b60005b83811015620001c2578082015181840152602081019050620001a5565b83811115620001d2576000848401525b50505050565b6000601f19601f8301169050919050565b610f8580620001f96000396000f3fe608060405234801561001057600080fd5b506004361061004c5760003560e01c8063449d46c0146100515780639a2cdc081461006d578063bd43a9081461008b578063c23f85d6146100a9575b600080fd5b61006b60048036038101906100669190610907565b6100d9565b005b6100756103dc565b6040516100829190610c77565b60405180910390f35b610093610427565b6040516100a09190610b7e565b60405180910390f35b6100c360048036038101906100be91906108de565b610578565b6040516100d09190610c77565b60405180910390f35b60016000808282546100eb9190610d94565b925050819055506001600260003373ffffffffffffffffffffffffffffffffffffffff1673ffffffffffffffffffffffffffffffffffffffff1681526020019081526020016000205461013e9190610d94565b600260003373ffffffffffffffffffffffffffffffffffffffff1673ffffffffffffffffffffffffffffffffffffffff168152602001908152602001600020819055506101c16040518060400160405280602081526020017f25732074636861757a696e686f7520636f6d2061206d656e736167656d202573815250338361065a565b600160405180606001604052803373ffffffffffffffffffffffffffffffffffffffff16815260200183815260200142815250908060018154018082558091505060019003906000526020600020906003020160009091909190915060008201518160000160006101000a81548173ffffffffffffffffffffffffffffffffffffffff021916908373ffffffffffffffffffffffffffffffffffffffff16021790555060208201518160010190805190602001906102809291906107be565b506040820151816002015550503373ffffffffffffffffffffffffffffffffffffffff167f5f7e16dc676677766a70e9c5628aa6c54ddb8b6e5188e2ae1e1f17f1ffbea71642836040516102d5929190610c92565b60405180910390a26000655af3107a400090504781111561032b576040517f08c379a000000000000000000000000000000000000000000000000000000000815260040161032290610c37565b60405180910390fd5b60003373ffffffffffffffffffffffffffffffffffffffff168260405161035190610b69565b60006040518083038185875af1925050503d806000811461038e576040519150601f19603f3d011682016040523d82523d6000602084013e610393565b606091505b50509050806103d7576040517f08c379a00000000000000000000000000000000000000000000000000000000081526004016103ce90610c57565b60405180910390fd5b505050565b600061041f6040518060400160405280601e81526020017f74656d6f73206e6f20746f746f616c2025642074636861757a696e686f7300008152506000546106f9565b600054905090565b60606001805480602002602001604051908101604052809291908181526020016000905b8282101561056f57838290600052602060002090600302016040518060600160405290816000820160009054906101000a900473ffffffffffffffffffffffffffffffffffffffff1673ffffffffffffffffffffffffffffffffffffffff1673ffffffffffffffffffffffffffffffffffffffff1681526020016001820180546104d490610e68565b80601f016020809104026020016040519081016040528092919081815260200182805461050090610e68565b801561054d5780601f106105225761010080835404028352916020019161054d565b820191906000526020600020905b81548152906001019060200180831161053057829003601f168201915b505050505081526020016002820154815250508152602001906001019061044b565b50505050905090565b6000600260008373ffffffffffffffffffffffffffffffffffffffff1673ffffffffffffffffffffffffffffffffffffffff168152602001908152602001600020549050919050565b610657816040516024016105d59190610ba0565b6040516020818303038152906040527f41304fac000000000000000000000000000000000000000000000000000000007bffffffffffffffffffffffffffffffffffffffffffffffffffffffff19166020820180517bffffffffffffffffffffffffffffffffffffffffffffffffffffffff8381831617835250505050610795565b50565b6106f483838360405160240161067293929190610bc2565b6040516020818303038152906040527fe0e9ad4f000000000000000000000000000000000000000000000000000000007bffffffffffffffffffffffffffffffffffffffffffffffffffffffff19166020820180517bffffffffffffffffffffffffffffffffffffffffffffffffffffffff8381831617835250505050610795565b505050565b610791828260405160240161070f929190610c07565b6040516020818303038152906040527f9710a9d0000000000000000000000000000000000000000000000000000000007bffffffffffffffffffffffffffffffffffffffffffffffffffffffff19166020820180517bffffffffffffffffffffffffffffffffffffffffffffffffffffffff8381831617835250505050610795565b5050565b60008151905060006a636f6e736f6c652e6c6f679050602083016000808483855afa5050505050565b8280546107ca90610e68565b90600052602060002090601f0160209004810192826107ec5760008555610833565b82601f1061080557805160ff1916838001178555610833565b82800160010185558215610833579182015b82811115610832578251825591602001919060010190610817565b5b5090506108409190610844565b5090565b5b8082111561085d576000816000905550600101610845565b5090565b600061087461086f84610cf3565b610cc2565b90508281526020810184848401111561088c57600080fd5b610897848285610e26565b509392505050565b6000813590506108ae81610f38565b92915050565b600082601f8301126108c557600080fd5b81356108d5848260208601610861565b91505092915050565b6000602082840312156108f057600080fd5b60006108fe8482850161089f565b91505092915050565b60006020828403121561091957600080fd5b600082013567ffffffffffffffff81111561093357600080fd5b61093f848285016108b4565b91505092915050565b60006109548383610afb565b905092915050565b61096581610dea565b82525050565b61097481610dea565b82525050565b600061098582610d33565b61098f8185610d56565b9350836020820285016109a185610d23565b8060005b858110156109dd57848403895281516109be8582610948565b94506109c983610d49565b925060208a019950506001810190506109a5565b50829750879550505050505092915050565b60006109fa82610d3e565b610a048185610d72565b9350610a14818560208601610e35565b610a1d81610f27565b840191505092915050565b6000610a3382610d3e565b610a3d8185610d83565b9350610a4d818560208601610e35565b610a5681610f27565b840191505092915050565b6000610a6e601a83610d83565b91507f54686520436f6e7472616374206e6f2068617320666f756e64730000000000006000830152602082019050919050565b6000610aae601383610d83565b91507f756e61626c6520746f2073656e642067696674000000000000000000000000006000830152602082019050919050565b6000610aee600083610d67565b9150600082019050919050565b6000606083016000830151610b13600086018261095c565b5060208301518482036020860152610b2b82826109ef565b9150506040830151610b406040860182610b4b565b508091505092915050565b610b5481610e1c565b82525050565b610b6381610e1c565b82525050565b6000610b7482610ae1565b9150819050919050565b60006020820190508181036000830152610b98818461097a565b905092915050565b60006020820190508181036000830152610bba8184610a28565b905092915050565b60006060820190508181036000830152610bdc8186610a28565b9050610beb602083018561096b565b8181036040830152610bfd8184610a28565b9050949350505050565b60006040820190508181036000830152610c218185610a28565b9050610c306020830184610b5a565b9392505050565b60006020820190508181036000830152610c5081610a61565b9050919050565b60006020820190508181036000830152610c7081610aa1565b9050919050565b6000602082019050610c8c6000830184610b5a565b92915050565b6000604082019050610ca76000830185610b5a565b8181036020830152610cb98184610a28565b90509392505050565b6000604051905081810181811067ffffffffffffffff82111715610ce957610ce8610ef8565b5b8060405250919050565b600067ffffffffffffffff821115610d0e57610d0d610ef8565b5b601f19601f8301169050602081019050919050565b6000819050602082019050919050565b600081519050919050565b600081519050919050565b6000602082019050919050565b600082825260208201905092915050565b600081905092915050565b600082825260208201905092915050565b600082825260208201905092915050565b6000610d9f82610e1c565b9150610daa83610e1c565b9250827fffffffffffffffffffffffffffffffffffffffffffffffffffffffffffffffff03821115610ddf57610dde610e9a565b5b828201905092915050565b6000610df582610dfc565b9050919050565b600073ffffffffffffffffffffffffffffffffffffffff82169050919050565b6000819050919050565b82818337600083830152505050565b60005b83811015610e53578082015181840152602081019050610e38565b83811115610e62576000848401525b50505050565b60006002820490506001821680610e8057607f821691505b60208210811415610e9457610e93610ec9565b5b50919050565b7f4e487b7100000000000000000000000000000000000000000000000000000000600052601160045260246000fd5b7f4e487b7100000000000000000000000000000000000000000000000000000000600052602260045260246000fd5b7f4e487b7100000000000000000000000000000000000000000000000000000000600052604160045260246000fd5b6000601f19601f8301169050919050565b610f4181610dea565b8114610f4c57600080fd5b5056fea2646970667358221220970374b7ee82a5c03d80c57d43aeb715d7d94982aa6870309e56e831c773a4de64736f6c63430008000033",
  "linkReferences": {},
  "deployedLinkReferences": {}
}